:020000040800F2
:10000000888301209D0100088F1C0008C71A000882
:100010008D1C00087D0A0008312000080000000047
:10002000000000000000000000000000931C000819
:10003000990A000800000000911C0008951C0008A7
:10004000B7010008B7010008B7010008B7010008B0
:10005000B7010008B7010008B70100089D0A0008B1
:10006000B7010008B7010008B7010008B701000890
:10007000B7010008B7010008B7010008B701000880
:10008000B7010008B701000865090008B7010008BA
:10009000B7010008B7010008B7010008B701000860
:1000A000B7010008B51C0008B7010008B701000837
:1000B000B7010008B7010008B7010008B701000840
:1000C000B7010008B7010008B7010008B701000830
:1000D000B7010008B7010008B7010008B701000820
:1000E000B7010008B7010008B7010008B701000810
:1000F000B7010008B7010008B7010008B701000800
:10010000B7010008B7010008B7010008B7010008EF
:10011000B7010008B7010008B7010008B7010008DF
:10012000810A0008B7010008B7010008B7010008FC
:10013000B7010008B7010008B7010008B7010008BF
:10014000B7010008B7010008B7010008B7010008AF
:10015000B7010008B70100088D0A0008B7010008C0
:10016000B7010008B7010008B7010008B70100088F
:10017000B7010008B7010008B7010008000000003F
:10018000B7010008B7010008DFF80CD000F04EFA04
:10019000004800472116020888830120064880474E
:1001A00006480047FEE7FEE7FEE7FEE7FEE7FEE75C
:1001B000FEE7FEE7FEE7FEE7A51C00088901000850
:1001C000421C10F8011B0029FBD1801A704710B5A2
:1001D000002200E0521C835C8C5CA34201D1002B06
:1001E000F8D1D8B2E1B2401A10BD034611F8012B84
:1001F00000F8012B002AF9D11846704730B50B469C
:10020000014600202022012409E021FA02F59D4246
:1002100005D303FA02F5491B04FA02F52844151E1A
:10022000A2F10102F1DC30BD2DE9F05F05460020AE
:1002300092469B4688460646814640241BE0284657
:1002400041464746224600F012FA53465A46C01A23
:10025000914110D311461846224600F0F9F92D1AA3
:1002600067EB01084F4622460120002100F0F0F91B
:1002700017EB00094E41201EA4F10104DFDC4846C3
:1002800031462A464346BDE8F09F2DE9FE4F8046A1
:1002900081EA0300C00F0C46009021F0004123F0DA
:1002A0000045B8EB0200A94105D2404621469046E0
:1002B0001C460B46024623F00040104347D0270D52
:1002C000C7F30A00C3F30A510290401A0190402874
:1002D0006BDAC3F3130040F4801B0098924620B100
:1002E0000023D2EB030A63EB0B0B01985946C0F1D4
:1002F0004002504600F0ACF906460D4650465946BD
:10030000019A00F0C4F910EB08006141002487EA6B
:10031000115284EAE7731A4340D0009A62B3019AFB
:10032000012A4FEA075215DC001B61EB02014FF076
:10033000004202EA0752CDE90042001C41F580115B
:1003400032462B4600F0C4F903B0BDE8F08F4046BA
:100350002146F9E7001B61EB0201001C41F5801307
:1003600000185B412018A2F5001747EB030140EA93
:10037000D570B6196D4111E06D084FEA360645EAB1
:10038000C0754FEA0752001B61EB0201001C41F5EA
:10039000801149084FEA30000019514132462B467E
:1003A00003B0BDE8F04F00F084B90098012240008E
:1003B0000023D0EB020263EBE073009821464FEA82
:1003C000E074B8EB000061EB0401E9E783F000435F
:1003D0005BE781F0004158E72DE9FE4F81EA030415
:1003E00004F0004421F0004100944FF0000B23F092
:1003F000004350EA01045ED052EA03045BD0C3F329
:100400000A54C1F30A552C44A4F2F3340194A0FB1E
:100410000254C1F3130141F48011C3F3130343F4F5
:10042000801301FB024400FB034E840A970A44EA4E
:10043000815447EA8357A4FB076802958D0A05FBA0
:1004400007854FEA932C04FB0C542705029D4FEAC5
:10045000065847EA1637B5EB08056EEB070C870E12
:10046000920E47EA811742EA8312A7FB0201B6EB1C
:100470000B0164EB00042B0D43EA0C335E1844EBD4
:100480001C50DA465146E7FB0201C5F313044FEA5C
:100490000B3343EA14534FEA0432019C43EA060348
:1004A000A4F10C040294009CCDE900B400F010F912
:1004B00003B0BDE8F08F00200146F9E72DE9F04DCB
:1004C00081EA030404F0004B21F0004514464FF08C
:1004D000000A23F0004150EA050220D054EA01024C
:1004E0001DD0C5F30A570246C5F31303C1F3130029
:1004F000C1F30A5640F4801543F48013A7EB0608B5
:10050000101BD64608F2FD3873EB050002D308F144
:10051000010801E092185B41B8F1000F03DA0020F6
:100520000146BDE8F08D00204FF480110646844658
:100530000EE0171B73EB050705D3121B63EB0503D6
:1005400006434CEA010C49084FEA300092185B411F
:1005500050EA0107EDD152EA030012D082EA04000A
:1005600083EA0501084305D0101BAB4106D20122E6
:10057000002306E000224FF0004302E06FF001028A
:1005800053101AEB06004CEB085110EB0A0041EB3C
:100590000B01BDE8F04D00F08CB8C1F30A52C1F375
:1005A000130140F2FF3341F480119A4202DA002035
:1005B0000146704740F233439A42A2F2334202DCD2
:1005C000524200F054B800F043B8000030B5041EA9
:1005D00071F1000404DB4FF00044404264EB010180
:1005E000141E73F1000405DB1C464FF00043524219
:1005F00063EB04038B4208BF824230BD30B5041E5A
:1006000071F1000404DB4FF00044404264EB01014F
:10061000141E73F1000405DB1C464FF000435242E8
:1006200063EB0403994208BF904230BD064C074D6E
:1006300006E0E06840F0010394E8070098471034B2
:10064000AC42F6D3FFF7A4FD3C1604087C16040860
:10065000202A04DB203A00FA02F100207047914082
:10066000C2F1200320FA03F3194390407047202A77
:1006700004DB203A21FA02F00021704721FA02F34C
:10068000D040C2F120029140084319467047202A09
:1006900006DBCB17203A41FA02F043EAE07306E0AA
:1006A00041FA02F3D040C2F12002914008431946BA
:1006B000704710B5141E73F1000408DA401C41F1B4
:1006C000000192185B411A4301D120F0010010BDD6
:1006D0002DE9F04D92469B4611B1B1FA81F202E04C
:1006E000B0FA80F220329046FFF7B2FF04460F4680
:1006F00040EA0A0041EA0B0153465A46084313D028
:10070000114653EA010019D0C8F140025046FFF7E4
:10071000AEFF05460E46504659464246FFF798FF43
:10072000084305D0012004E020463946BDE8F08D9D
:100730000020054346EAE0762C4337430A986305D8
:10074000E40AA0EB08000022FD0A44EA47540A30FC
:1007500002D500200146E9E7010510196941DDE9EC
:10076000084500196941BDE8F04DA2E710B5431AEC
:10077000934209D28318881803E010F8011D03F88A
:10078000011D521EF9D210BD40EA01039B0703D0A0
:1007900009E008C9121F08C0042AFAD203E011F8C0
:1007A000013B00F8013B521EF9D210BDD2B201E06C
:1007B00000F8012B491EFBD270470022F6E710B566
:1007C00013460A4604461946FFF7F0FF204610BDBF
:1007D00030B5041E71F1000404DB4FF000444042C8
:1007E00064EB0101141E73F1000405DB1C464FF09D
:1007F0000043524263EB0403101A8B4101D30120E2
:1008000030BD002030BD0EB540F2334102910021D1
:10081000CDE900110A460B46FFF75AFF03B000BDB1
:1008200000F0004230F000400AD0C10D01F56071C7
:10083000C0F3160042EA0151C20840071143704755
:1008400000200146704701F0004330B421F0004120
:1008500050EA010206D00A0DA2F56072C1F313013D
:10086000002A02DC30BC00207047440F44EAC10477
:10087000C100E01830BC00EBC250AFF3008000298B
:10088000A8BF7047401C490008BF20F00100704716
:1008900010B4B0FA80FC00FA0CF050EA010404BF76
:1008A00010BC704749B1CCF1200421FA04F411FACC
:1008B0000CF118BF012121430843A3EB0C01CB1D10
:1008C0004FEA00614FEA102042BF002010BC704781
:1008D00000EBC35010440029A4BF10BC7047401C5B
:1008E000490008BF20F0010010BC70470146806B32
:1008F000036C026C13F0500F06D0D20648BF70474D
:10090000806BC26C0846104742F4007101640168B4
:100910008A6812F0405F01D000F00ABC027E002A13
:10092000FAD1CA6A12F4700F02D08A685205F3D461
:100930004A6822F020024A60016C21F4807101644F
:10094000016CC904E8D4016C41F00101016400F0BC
:10095000EFBB806B40210164416C41F004014164B4
:100960007047704770B5444CE06A06684568B10747
:100970002ED515F020012BD0E16EC90603D4E16E0F
:1009800041F40071E166816811F0405F18D194F87C
:100990004410A9B9C16A11F4700F02D081684905E9
:1009A0000ED4416821F020014160E06E20F4807097
:1009B000E066E06EC00403D4E06E40F00100E06643
:1009C00004F12C0000F0B4FBE06A6FF0120101604A
:1009D000710710D515F080010DD0E16EC90603D462
:1009E000E16E41F40051E166816811F4401F20D0AE
:1009F0006FF00C010160F1070DD015F040011CBF34
:100A000001685FEAC17106D0E16E41F48031E166B0
:100A10006FF001010160B1060AD515F0806107D0C1
:100A2000216F41F0020121676FF020010160016038
:100A300070BD816B11F4401F02D081684905D7D485
:100A400041684905D4D4816811F0405FD0D194F851
:100A500044100029CCD1416821F080014160E16E51
:100A600021F48051E166E16EC905C1D4E16E41F027
:100A70000101E166BCE700BF18010020FEE70000AD
:100A8000014800F015BC00BF74540020014800F07C
:100A90000FBC00BF8CC201207047000005480168F0
:100AA000890758BF70470221016003484168002050
:100AB000084700BF143C014024C0012072B6FEE785
:100AC0002DE9FC4105469E489E4CD0F8548094F890
:100AD0003D00202849D19C4817460E460121192285
:100AE000434601F009F800283FD194F83C00012862
:100AF0003BD0012084F83C0020680168C90703D17D
:100B0000016841F0010101600168904A434621F407
:100B100000610160222184F83D10402184F83E10DC
:100B2000002121646785618DE262026842F480627F
:100B3000026066622185FF22016841F480710160D4
:100B40004FF00110002100F0D7FF216838B108688C
:100B5000C0050AD54FF400702064BDE8FC81BA20BE
:100B60000861404600F0FEFF08B1BDE8FC810020AE
:100B70000190206841690191806901900198404687
:100B800001F04CF868B92068290A0161404601F07B
:100B900045F830B92068E9B20161404601F03EF8FD
:100BA00048B1206C0428E0D12068016841F400714C
:100BB0000160BDE8FC812068FF224346016841F4E2
:100BC000807101604FF00110002100F095FF216855
:100BD0000028BCD1BB200861404600F0C3FF0028BC
:100BE000C3D1208D022806D0012810D00021F8B9E9
:100BF0000191216812E021680A6822F480620A608B
:100C00000A6842F400620A600022019212E0216840
:100C10000A6822F480620A60002201924A69019205
:100C20008A690192019A0A6842F400720A6006E039
:100C3000019121684A690192896901910199444DA4
:100C4000010473D086B2032E0CD8012E2BD140465E
:100C500000F0B4FF00287FF488AF2068616A006963
:100C6000087059E0404600F0A9FF00287FF47DAFEE
:100C70002068616A00690870608D01386085606A6B
:100C80002168421C208D6262013820854B695B0718
:100C9000D6D580B2032803D1086820F480600860AC
:100CA0000869107038E028460021FF22434600F012
:100CB00023FF022E19D000287FF457AF2068616A05
:100CC0004346026822F480620260FF2200690870D5
:100CD0000021606A01306062208D01382085608DBE
:100CE00001386085284600F007FF00287FF43DAFFB
:100CF0002068616A026842F400720260006908704C
:100D0000608D01386085616A20684A1C6262228DAC
:100D1000013A228500694870606A01306062208D66
:100D200001382085618D0139618589E7202084F8AB
:100D30003D00002084F83C0084F83E00BDE8FC81C2
:100D400028000020D4540020020010000000FFFF03
:100D5000040001002DE9FE43DFF8448F01468DF8C1
:100D6000071098F81C00013088F81C00C0B20A284F
:100D700009D30A22B0FBF2F202EB8202A0EB42009E
:100D8000000640F0AE800DF1070148F24E1001223E
:100D9000FFF796FE9DF80710080671D501F00E00CA
:100DA00005286DD80020A34E8DF80200D8F85440D5
:100DB00096F83D00202861D19F4801211922234641
:100DC00000F09AFE002859D196F83C00012855D031
:100DD0000121306886F83C100268D20703D102680E
:100DE00042F0010202600268234622F400620260BF
:100DF000212286F83D20402286F83E2000223264DF
:100E000071858E4A718DF2620DF102027262318536
:100E1000FF22016841F4807101604FF00110002150
:100E200000F06AFE316830B10868C00544BF4FF475
:100E30000070306422E0BA200861204600F092FE83
:100E4000E0B9002002903068416902918069029007
:100E50000298204600F0E2FE40B93068812101612D
:100E6000204600F0DBFE002800F08D80306C042866
:100E700004D13068016841F4007101609DF80710E9
:100E800001F00F00421E042A2BD86D4F6D4E002535
:100E90000DF10304398997F81C903982798A798396
:100EA000FF2101FA00F0C1218DF8020061EA000083
:100EB0003877052D28D0387FE840C0070FD036F8A6
:100EC000150021460422FFF7FBFDBDF8051007EBD6
:100ED00045000181BDF80310C1F5A07141820135C3
:100EE000E7E7002001F08F01802931D1544991F8C2
:100EF0001C904FFA89F1002925D451494FF0FF3257
:100F00004A820A81E0211FE098F81E1038890029E2
:100F100018BF4FF4F071884208D898F82010788AEA
:100F2000002918BF4FF4A071884225D99DF80710F9
:100F300011F00E0F15D0002088F81C007889388138
:100F4000B88A78821DE07F213D4A01EA09011177C4
:100F500098F81C10F12924BF0A2188F81C10BDE85C
:100F6000FE83388A87F81C903881788B78828020BD
:100F70008DF807000120BCE700209DF8071088F8D5
:100F80001C000120AEE730684E210161318D09045B
:100F900031D0204600F042FE00287FF467AF726A2D
:100FA0003068114611F8013B0361738D013B738575
:100FB0007162338D591E31850F04456918BF15F0D4
:100FC0000405E4D0517802320161991E72623185C4
:100FD000728D013A7285DAE700F076FD00287FF421
:100FE00045AFD8F85400011B3068B1F5807F02D3BB
:100FF000416949070FD541694907EDD5016841F4B9
:1010000000710160202086F83D00002086F83C0039
:1010100086F83E0032E700202021306386F83D103C
:1010200086F83E0086F83C00306C40F020003064CA
:101030001CE700BFD4540020020010000000FFFF96
:1010400024C001200CAA0208F8B50021DFF848C22C
:1010500000919CF86820012A04BF0220F8BD0268B4
:10106000102793B2092A4FEA430414FA82F54FF08D
:10107000070488BF1E3D04FA05F688BF0C27DCF87C
:101080002C40E159B143E1518168A940E559294318
:10109000E151012145688CF86810062D05D805EB53
:1010A000850104F134004D1F0BE005EB85060C2D86
:1010B00087BF04F12C00A6F1410504F13000A6F130
:1010C00023051F210668A94026EA0101016003FAF1
:1010D00005F10368194301601348A0F541718C4282
:1010E0001ED1122A04D1016841F48001016017E089
:1010F00022F00101102913D10168102A41F40001E6
:1011000001600DD1C54809498068B0FBF1F000EBE2
:10111000800040000090009810B100980138F9E775
:1011200000208CF86800F8BD0423014040420F0005
:101130002DE9F84F2DED047B57492C31884240F0C2
:101140009980564ADFF86481D06C411C4708002022
:10115000D1640121132904D858F821200231104408
:10116000F8E7FFF750FB9FED460B53EC10AB5246F0
:101170000193FFF731F99FED440B59EC104B2246D8
:101180004B46FFF79BF99FED420B55EC106B324637
:101190002B46FFF793F9FFF756FB41496FF35F27A3
:1011A00000EE100ABFEE001A0020009730EE018A10
:1011B00001EB870B0F4600218BED008A132904D821
:1011C00058F8212002311044F8E7FFF71CFB019B7F
:1011D0005246FFF701F922464B46FFF76FF93246B8
:1011E0002B46FFF76BF9FFF72EFB4FF480510023DE
:1011F0004BF801002B4843F25401425C43F2580182
:101200004158B3EB912F08BF002A0AD0009BB1F5DB
:10121000806F13D392B943F254010122425400214A
:1012200009E0CA0000230432835000EBC102009B96
:10123000013182ED008A43F25802815040F2FF10E2
:10124000834217D1184C15490020C86404F1540298
:1012500038464FF4007103F005FC07F5805004F1A7
:1012600058024FF40071BDEC047B01B0BDE8F04FB3
:1012700003F0F8BBBDEC047B01B0BDE8F08F00BF0C
:101280000000006066660A400000000000FEAF40FB
:1012900000000000000024401801002048C0012088
:1012A0008C0100209C220020A400002024C20120E8
:1012B000F8B504460020594A08210090D4E9166088
:1012C00095683768814039420CD0226813685B0703
:1012D00008D5136823F004031360B160616D41F019
:1012E0000101616501218140394208D022685269BB
:1012F000120604D5B160616D41F0020161650421FF
:101300008140394208D022681268920704D5B16042
:10131000616D41F00401616510218140394217D0AF
:1013200020680268120713D5B16002680168520391
:1013300006D4C90506D4016821F00801016001E066
:10134000080301D4216C00E0A16C09B12046884754
:10135000E16D202000FA01F23A423BD02068036898
:10136000DB0637D5B26094F835300268052B19D109
:1013700022F016020260426922F080024261226C71
:101380000AB9A26C1AB1026822F0080202603F207A
:101390008840B060002084F83400012084F83500D3
:1013A000216D37E0016852030CD4C9050ED40168E1
:1013B00021F010010160002084F83400012084F83D
:1013C000350003E0080301D4616C00E0E16B09B172
:1013D00020468847606D00B3606DC00719D00521B5
:1013E0004FF4165084F83510B5FBF0F021680A6808
:1013F00022F001020A60009A01328242009202D871
:101400000A68D207F7D1002084F83400012084F85C
:101410003500E16C09B120468847F8BD0400002082
:101420002DE9F04147494B6DA8B1022280F83520E3
:10143000002280F834200268146824F0010414604B
:101440001468E40709D04C6DE41A052CF8D903267A
:101450002027032160E0012152E01168071D3A4B6B
:10146000F0CF01EA030ED0E9051CD0E9073844EAC1
:101470000E042C4334433C432143446A41EA0C01AB
:101480001943042C41EA08031AD1D0E90A54016B2C
:10149000234341EA03011160516921F0030141EA4C
:1014A000050141F004038CB1BCF5005F2BD0BCF109
:1014B000000F3BD1022D3CD0012D31D0002D37E063
:1014C0001360516921F0070141EA04036FF00F0135
:1014D000536140F2FF330027012651FA82F19A430B
:1014E00018235F29B1FBF3F118A388BF043282658A
:1014F000595C3F23C16503FA01F1916000210BE0C3
:101500000846BDE8F081032DE0D8012640270121DF
:10151000DFE805F0020F0206476580F83560EFE767
:10152000A4F1C071B1FA81F1490904E0032D04D39B
:10153000CCD1C4F300610029C8D001264027012185
:10154000EAE700BF280000203F8010F000061016D8
:1015500000061016034901304A6D4B6D9B1A8342F9
:10156000FBD37047280000202DE9FC4F624A082475
:101570004FF0010B4FF0000A4FF0000E90425F4A0F
:1015800008BF072402444FEAB223072B38BF4FEAB3
:10159000B22400220094102A08BFBDE8FC8F0B681B
:1015A0000BFA02F6334200F0A1804F6807F00309FE
:1015B000A9F10103012B14D803238468CD6803FA31
:1015C0000EF39C4305FA0EF56FEA030873462C43AD
:1015D0008460C7F3001445689440B5432C434460CD
:1015E0000BE04FF0030CB9F1030F0CFA0EF36FEAA6
:1015F000030801D1734624E05300C4688D68B9F133
:10160000020F04EA080405FA03F544EA0504C4607D
:1016100016D10AF01C040F2505FA04FC6FF003052F
:1016200005EA520707443D6A25EA0C0C0D6905FAE4
:1016300004F444EA0C043C624F6807F0030C00E039
:10164000CC4604680CFA03F317F4403F04EA08049C
:1016500043EA0403036049D00023CC4C284F22F016
:10166000030501932368BC463D4443F48043236053
:1016700023680F2403F4804301930AF00C03019FB5
:101680009C40214FB846EF5927EA0404009F07FA0F
:1016900003F3234345F80830DCF808304D6843EA8B
:1016A0000604EF0258BF23EA0604164BCCF80840A4
:1016B000AF0298461B6843EA060458BF23EA0604B3
:1016C000C8F80040AF03DCF8043043EA060458BF12
:1016D00023EA0604CCF80440ED03DCF8003043EACA
:1016E000060458BF23EA0604CCF800400AF1040AB5
:1016F0000EF1020E01324EE7001C02400000FEBF58
:10170000003C01400C3C014008FCFFFFB0B52A4DF5
:1017100004464FF47A71A868B0FBF1F0411E002036
:10172000B0EB116F10D1094AF0230F2C516008491A
:101730000B7090604FF00700106005D84FF0FF303D
:10174000214600F007F86C60B0BD00BF10E000E07B
:1017500023ED00E010B500F00F03114C0F4AB0F17B
:10176000FF3FA3F10403234403F10C03C8BF831814
:1017700020684FF0FF34C0F30220C21E80F0070043
:1017800038BF0022042828BF042004FA00F021EA10
:10179000000090400001187010BD00BF00E400E0A0
:1017A0000CED00E004480549054A80680968C1F36A
:1017B0008221515CC8407047040000200838024074
:1017C00080BA020810B590F83C400223012C2ED0BC
:1017D00080F83D30012380F83C3003685C68B3F149
:1017E000804F24F0700444EA010499685C6014D0CE
:1017F000684CA34211D0684CA3420ED0674CA34260
:101800000BD0674CA34208D05F4CA34205D0674C75
:10181000A34202D05B4CA34203D121F080011143CB
:1018200099600023012180F83C3080F83D10184673
:1018300010BD00BF002877D0BCB5044690F83D002D
:10184000002873D0022084F83D0020680168B0F1C0
:10185000804F0ED04F4A90420BD04F4A904208D052
:101860004E4A904205D0474A904202D0464A9042A2
:1018700003D1A26821F070011143B0F1804F20D054
:10188000444A90421DD0444A90421AD0434A904262
:1018900017D0434A904214D0424A904211D0424A53
:1018A00090420ED0384A90420BD0364A904208D02F
:1018B0003E4A904205D03E4A904202D03D4A904274
:1018C00003D1226921F440711143A56921F08001FF
:1018D0006268E36829430160C3628262294A40F476
:1018E0008061914204BF6169016301214161026924
:1018F000D20703D0026922F001020261002084F8BD
:10190000461084F83E1084F83F1084F8401084F8A4
:10191000411084F8421084F8431084F8441084F88D
:10192000451084F83D10BCBD012070472168154A60
:10193000002084F83C00914218D0134881427FF483
:1019400081AF002001901148016841F00101016060
:101950000121006800F00100019001981920FFF7B3
:10196000F9FE0B484FF0007101606BE700900748EB
:10197000016841F002010160006800F0020000907F
:1019800000985FE700040140000001404438024035
:1019900000E100E00004004000080040000C0040AE
:1019A00000180040001C00400020004000400140A2
:1019B0000048014000440140B0B590F83C20044686
:1019C0000220012A7CD084F83D0001204FF6777375
:1019D00084F83C00206882689A4382600A6812B3E7
:1019E000102A20D0202A1ED0302A1CD0402A21D0F4
:1019F000502A2BD0602A35D0B2F5005F4AD0B2F51C
:101A0000805F56D0702A5CD1D1E90123C9681A439E
:101A100042EA0121826822F47F4211438160816899
:101A200041F0770144E0816821F07001114341F0F9
:101A300007013DE04B68CA68194600F04DFA20687E
:101A4000816841F0470121F0300131E04B68CA68FC
:101A5000194600F041FA2068816841F0570121F0F1
:101A6000200125E0026A036A23F0100303624B6839
:101A7000C968856925F4704545EA0131816122F024
:101A8000A00141EA03110162816841F0670121F080
:101A900010010DE0D1E90123C9681A4342EA01218E
:101AA000826822F47F4211438160816841F4804161
:101AB00081600020002184F83C10012184F83D1051
:101AC000B0BD0120F6E7FEE767490A6850694005A6
:101AD0004FF000000FD56FF480635361202208633C
:101AE00081F83D2081F83E0081F83C00086C40F010
:101AF0000400086401207047F0B5DFF86CC100F401
:101B00007F041825F04F80B2B4F5803F08BF14253C
:101B1000DCF8006074590440241AB4FA84F46409AF
:101B20008C421DD17C6DE41A9442F3D9745904405F
:101B3000241AB4FA84F464098C42EBD100202021E9
:101B4000CCF830008CF83D108CF83E008CF83C004E
:101B5000DCF8400040F02000CCF840000120F0BD4F
:101B60000020F0BD10B54049D74B0A685469A4075E
:101B70000CD4546964050BD45C6D241AB4F5807FD1
:101B8000F4D35469A407F1D4202009E0002010BD4B
:101B9000106840F4007010606FF4806050610420A1
:101BA000002220230A6381F83D3081F83E2081F82D
:101BB0003C200A6C10430864012010BD10B52A496E
:101BC000C14B0A685469640615D45469E40614D4F8
:101BD0005C6D241AB4F5807FF4D354696406F1D4A3
:101BE00000202022086381F83D2081F83E00086C27
:101BF00040F020000CE0002010BD6FF0100050619C
:101C000000202022086381F83D2081F83E00086C06
:101C1000002281F83C200864012010BD70B5124DEF
:101C2000A94E04462868406900061AD4FFF74CFF05
:101C3000A8B9706D001BB0F5807FF3D328684069A8
:101C40000006EFD400202021286385F83D1085F898
:101C50003E0085F83C00286C40F0200028640120FC
:101C600070BD002070BD00BFD454002081B0ADF81D
:101C70000200BDF80200ADF802000348BDF80210F2
:101C8000018001B0704700BF00000860FEE7FEE77A
:101C900070477047E548416D01314165704700BFAD
:101CA000280000200248016841F47001016070477B
:101CB00088ED00E02DE9F84FDFF80492D9F8000034
:101CC000C168026902EA0104A10706D56FF00201AA
:101CD0000161002189F81C108169610706D56FF048
:101CE00004010161002189F81C108169210706D5D2
:101CF0006FF008010161002189F81C10C169E1063B
:101D000006D56FF010010161002189F81C10C1692E
:101D1000E10700F0BD806FF001010161694988426F
:101D200040F0B680DFF888AC05229AF80000013058
:101D3000C1B28AF80000B1FBF2F202EB8202891A0A
:101D400040F090809AF81910002940F08B80012013
:101D50008AF819009AF8180001287ED11FF024F99A
:101D60000146009030B95948C16B0131642988BFE0
:101D70000021C163564F554DD7F804B00020AAF892
:101D80001A00BBF1000FC5F81CB046D038685E469B
:101D90005844D0F804B0307DC007F2D130461FF06F
:101DA00071F910B14FF000081BE05746D6F810A0AB
:101DB000BAF1010FA4BFAAF1010030611FF0F4F8DD
:101DC0004FF00108BAF1000F706008D0B168BA4650
:101DD0003F4F31B1304688474FF0010801E0BA4625
:101DE0003B4F9AF81A0058B9306948B9384631461D
:101DF00000F0E9FF01208AF81A00304616F0F8FAE0
:101E0000B8F1000FBDD09AF81B0018B99AF81A0063
:101E10000128B6D1E8690028AED1381D06684EB158
:101E2000307DC00702D130461FF02CF938683044AD
:101E30000430F3E71FF0B8F80099401AD5E91016FE
:101E4000084428641FF0B0F8801BB0F5FA7F04D373
:101E5000002028641FF0A8F8686400208AF81900A0
:101E60009AF80000C0B2FA280BD31A48016801F4AE
:101E7000805141EA014181F48051416000208AF89B
:101E8000000000208AF815001048416801314160C7
:101E9000200604D5D9F800006FF0800101616006CA
:101EA00004D5D9F800006FF040010161A00604D507
:101EB000D9F800006FF020010161BDE8F88F00BF84
:101EC00078550020000001402800002048C0012073
:101ED000A40000201400024010B5036A046A24F034
:101EE00001040462846924F0F00444EA021282616D
:101EF00023F00A021143016210BD00002DE9FC41EC
:101F0000174E4FF48028042701AC16A50A20C6F806
:101F10000080FFF71FFB64203760FFF71BFB48F2D0
:101F2000401021460422FEF7CBFD9DF8040039281D
:101F300007D0284628F05CFC4FF4FA70FFF70AFB44
:101F4000E4E70CA001A927F063FC0E480E494160AC
:101F5000417F41F0800141770020BDE8FC8100BF56
:101F600018080240546F756368204572726F720DD5
:101F700000000000546F7563682049443A202573BF
:101F8000200D0A0024C00120550D0008B8B5264ACE
:101F9000264C13681D680540854241D0656D6D1A59
:101FA000B5F57A7F3ED8DD686D07F3D5402818BFB8
:101FB0008028EFD01D682D07ECD500200090186810
:101FC000009058680090009853E8030F116820F4BF
:101FD000907041E803030BB11368F5E7106850E80F
:101FE000050F116820F0010041E80503002BF5D131
:101FF000106B012809D1106850E8030F116820F018
:10200000100041E80303002BF5D1202082F84200A4
:102010000020106382F84000082050640120B8BD01
:102020000020B8BD0320B8BDC05500202800002006
:10203000FEE7026800211378303B092B84BF084675
:102040007047531C01EB81010360127802EB4101E0
:102050001A463039EFE7F0B5B1F90030B2F9006057
:10206000B1F90240B2F90270B1F90450B1F906C0F9
:10207000B2F90410B2F90620B342C8BF1E4606806A
:10208000BC42C8BF274647808D42B8BF29468180E1
:102090009445B8BF6246C280002097424FF00002CC
:1020A000D8BF01228E42D8BF01201040F0BD2DE9DB
:1020B000F8430D46B0F90070B1F900108F423CDBD7
:1020C000B0F90260B5F902108E4236DBB0F9049027
:1020D000B5F90410894530DCB0F90680B5F9060081
:1020E00080452ADC14465AB3694628462246ADF894
:1020F0000260ADF8007000F042F8F0B16946284681
:102100002246ADF80260ADF8009000F038F8A0B1BA
:10211000694628462246ADF80280ADF8007000F00E
:102120002EF850B1694628462246ADF80280ADF837
:10213000009000F024F8BDE8F8830020BDE8F883A3
:102140000120BDE8F883B1F90420B0F900309342D2
:1021500013DCB1F90020B0F9043093420DDBB1F982
:102160000620B0F90230934207DCB1F90210B0F951
:1021700006008842A4BF01207047002070472DE967
:10218000F04F85B0B0F90070B1F90050BD420EDBE0
:10219000B0F90460B5420ADCB0F90290B1F90280EE
:1021A0000C46C84503DBB0F906B0D84503DD002076
:1021B00005B0BDE8F08F012AC0F28080ABEB0900CA
:1021C000F31B0221ADF80E90ADF80C700130013315
:1021D00000B21BB290FBF1FA93FBF1F10FFA8AF017
:1021E0000BB28342B8BF8A460FFA8AF0214690426A
:1021F000A8BF92460AEB070000220290ADF810003B
:102200000AEB09000190ADF8120003A8FFF7B7FF31
:1022100020B101985044ADF812000FE0ADF812B0B3
:10222000ABEB0A0B03A821460022ADF80EB0FFF776
:10223000A6FF48B1ABEB0A09ADF80E90029800EB8F
:102240000A06ADF8106024E0A6EB0A0703A82146B1
:102250000022ADF81060ADF80C70FFF790FF20B1D0
:10226000ABEB0A09ADF80E900FE0DDF804B003A85F
:1022700021460022ADF80E90ADF812B0FFF77FFFB7
:10228000E0B10BEB0A00ADF81200A7EB0A07ADF8BE
:102290000C7039B232B2A8EB0900511A022291FB3C
:1022A000F2F1EA1B521A401A494312FB02F210FBE8
:1022B000002200208A4298BF012079E7012077E7B9
:1022C0002DE9F04F93B004461EF06EFE03900020FF
:1022D0000A9044B1E068DFF8541A8866217D41F025
:1022E0000101217505E0DFF8CC06DFF8401A00682F
:1022F000886600691BF07AFBDFF830BADBF86810FB
:10230000486918B11BF072FBDBF86810C8691BF054
:102310006DFBDBF86800006A1BF068FBDBF86830D7
:102320001869002800F0708100220BADB3F850014D
:1023300082427ED2981890F8300108B10132F5E758
:102340004FF0000A4FF030080492B3F85001824574
:10235000F4D2524566D003EB0A0090F83001002811
:1023600060D103EBC20003EB08019B4614463030FA
:10237000FFF7E9FE002853D00BEBCA010BEBC404B6
:1023800034F9300FB1F93020B1F93270B1F934902D
:10239000B1F936609042B8BF0246ADF82C20214614
:1023A000089231F9020F0791B842B8BF0746ADF85D
:1023B0002E70214631F9040F06914845C8BF814669
:1023C000ADF83090214631F9060F0591B042C8BFF3
:1023D00006462846DFF8E855ADF83260A847099070
:1023E0002046A847294605460BEB0800884709996F
:1023F0002844049A0BAD5B46814213D20798012111
:102400000780089820800698A0F80090059806801C
:1024100003EB0A0080F83011DFF81009836E01E049
:102420005B462246DFF804B908F108080AF1010A00
:102430008BE71868017CC90700F00781C068406815
:10244000002800F00281D3F85C0120B9D3F86001C4
:10245000002800F0FA8018681C46C068D0F8009088
:10246000D0F80880C84508BFD0F8049018460CF092
:1024700017F9064628462021FEF79FF92146002439
:10248000CDF82080CDE90669B1F85001844280F092
:10249000C180081990F83001002840F0B380D1F8CD
:1024A0005C810994B8F1000F00F0A580DBF868505A
:1024B000C246D5F8580105EBC40909F1300740447C
:1024C0003946D0F804805046FFF73DFE0028E9D099
:1024D0005046394600220024FFF7E9FD00285DD16F
:1024E000B9F93260BAF90210BAF90620BAF800B0A8
:1024F000BAF804C0701AA2EB010E00B2012809DB81
:102500000124ADF83260ADF830C0ADF82E10ADF852
:102510002CB000E00024B9F93600AEEB00030B4408
:102520001BB2012B0BDB904209DA0BAB23F834B062
:1025300003EBC4030134DA80A3F804C058808E4250
:10254000C8BF3146ACEB0B0E9042B8BF024638888C
:10255000A0EB0B031BB2012B0CDB531A1BB2012B9C
:1025600008DB0BAB23F834B003EBC4030134DA808F
:1025700098805980B9F83400AEEB00035B441BB27D
:10258000012B09DB0BAB23F8340003EBC40001344F
:10259000C280A0F804C04180DFF890B70BAE05F50B
:1025A000AC77FCB1D5F85C0150450FD038680830E5
:1025B00015F0A2FE39685AF801300A1D03B198508F
:1025C00043504AF8010040F802A002E0384600F00B
:1025D000E4FB316872680836013C42600160DBF858
:1025E0006850DCE73846514600F0EDFB504615F0E8
:1025F000FFFE099C56E7DBF86810DDF82080DDE976
:1026000006690BAD01343FE70020A3F8500113B079
:10261000BDE8F08F01F5AE70076887B108684146E4
:1026200032463B46C06B846BCDE900960297A047CB
:10263000DBF86810D1F8580138440430ECE701F5B4
:10264000AC7000F077FBDBF868300020CBF86C0052
:10265000B3F85001002800F08781012808DBA0F1C1
:102660000108184490F82F0100284046F5D101E0F8
:102670004FF000081868416B19B18847DBF86830E3
:102680001868C0680027017E01F0FE010176186815
:10269000C068017E01F0FD010176CDF81C8093F841
:1026A000280040F0040083F82800B3F85001874266
:1026B00080F0FC80D81990F83001002840F0F480B8
:1026C000474505D11868C068017E41F001010176D7
:1026D000186803EBC70606F1300AC068017E01F0F6
:1026E000FD0101761868C168C46B89682160007CAF
:1026F000800725D018460BF0D3FFDBF868608146D1
:1027000030460BF0E1FFA9F1010165600138ADF839
:1027100030100021ADF832000B913168D1E903018E
:102720008907027E59BF017E62F3410142F0020136
:10273000AA4601762046C4F808A020F0EFFEA6E0E5
:1027400036F8320FBAF80010B6F904B0B046ABEB69
:102750000000451C38F8020F401A00F10109184624
:102760000BF0B2FF83459248CDE9086701DA866E27
:1027700005E0866E30460BF0A7FFA0F1010B306834
:102780000FFA89F1C3688269DB68B3FBF1F929B2FA
:102790008945C8BF894612B300214E46ADF83010B6
:1027A0000B91751E0BA9ADF832509047BDF82E1055
:1027B000BDF93200411A013109B2894507DA2EB25A
:1027C000002E0ADD7A48806E00688269E9E731B23E
:1027D000012902DB00F1010901E04FF0000908982E
:1027E0000BAD0FFA8BF70021008809FA80F6721EF4
:1027F000BA4229DC6E49C4E9015515B2AF42896E6F
:102800000968C9688B682360ADF82E00BAF800002B
:10281000ADF82C00B8F80000ADF832201FFA8BF2AA
:10282000ADF83000BCBFADF832B05D46A8B2824210
:1028300003D1087E40F002000876204620F06EFEAC
:1028400029B230460BADD0E7B9421BD05849C4E994
:102850000155896E0968C9688A682260B8F8002045
:10286000BAF800300D7E45F002050D76ADF82E0069
:1028700020460BADADF832B0ADF82C30ADF83020BD
:1028800020F04CFEDFF8A4B4DDF81C80099FDBF8D3
:10289000684004EBC700303008F04BF9DBF86C10EF
:1028A00023460844CBF86C000137FEE693F8281065
:1028B000002801F0FB0183F8281055D019680A7C24
:1028C000D20731D0C968496871B34FF49874302584
:1028D0000026A4F59871814226D2195D09BBD3F870
:1028E00058011F46083015F007FD88B1D7F8582168
:1028F000111D4650D7F860318350D7F8602102B1DE
:102900005050D7F85C11C7F8600109B9C7F85C01ED
:10291000DBF868305A195959526801604260B3F8BF
:10292000500108350134D4E703F130004FF48071D1
:1029300015F0B7FEDBF86800202100F5987015F05F
:10294000B0FEDBF868000021A0F850111EF02CFB4F
:102950000399401A0A90DBF868000068436A1BB1CB
:10296000DBF86C200A999847134C00250026102D9F
:102970000FD054F8350050B115F03AFD04EBC50006
:1029800044F835608179868001F0FE01817101355E
:10299000EDE70A4D0024702C3FF439AE285908B1F8
:1029A00015F026FD28191C2115F07BFE1C34F2E7DA
:1029B0002800002048C001200856002034C1012012
:1029C00033AB00082DE9FF470C9E1D4682463BB9FC
:1029D000B6F5807F04D1501E4D1E0022002162E01A
:1029E000DDF8348000206F46DFF8D090ADF80E207F
:1029F000ADF80A20ADF80C10ADF8041029463246A7
:102A0000CDF80600009038464346C847381D294691
:102A100032464346C84707F1080029463246434636
:102A2000C84707F10C00294632464346C847BDF95E
:102A30000E50BDF90A102846A942C8BF0846BDF984
:102A40000670BDF90260BDF90030BDF90420BE4238
:102A50003C46C8BF34468442D8BF0446A942B8BFEA
:102A60000D46A01CBE42B8BF3746AF42A8BF2F4696
:102A7000BDF90C60BDF90840B91E1746B442354691
:102A8000C8BF25469342C8BF1F46AF42D8BF2F4696
:102A9000BD1CB442B8BF26469342B8BF1A46B242E4
:102AA000A8BF3246023AAAF80600AAF80450AAF8CB
:102AB0000210AAF80020BDE8FF8700BF1DDA010858
:102AC000B0B505460C460846102115F0EAFD286809
:102AD0000178042908D0022908D0012908D1A98A3F
:102AE0002180E98A618003E00A2100E0E9686160F1
:102AF00042681AB12146BDE8B0401047B0BD0000A1
:102B00002DE9FE43C56A002D00F0BD80B0F84010ED
:102B10000446080700F0B78084482A7FC66D520635
:102B20003068407E5CBF0022E261AA682AB1127E52
:102B3000C2F30119C2F3810803E04FF000084FF01F
:102B4000000901F00F01032916D00C2940F09980EB
:102B50000021B9F1000FA18353D03068E18B6423C9
:102B6000407EC0F1640200200F0419D0084412FB1B
:102B700001F191FBF3F1F7E70021B8F1000FE183D8
:102B800051D03068A18B6423407EC0F164020020E4
:102B90000F041DD0084412FB01F191FBF3F1F7E79C
:102BA0000021ADF80A000DF10A022046E183002160
:102BB00021F040FCBDF90A305D49284641F6FF721C
:102BC00004F0E6F9BDF80A100844002102B215E04D
:102BD0000021ADF8080020460022A18302A921F0BF
:102BE00029FCBDF908305249284641F6FF7204F02D
:102BF00043F9BDF808100022084401B22846012319
:102C00003DE0B4F91E10C0F164004843642190FB1C
:102C1000F1F0E083284617F08BFD0346A86800B367
:102C2000408A40421EE0B4F91C10C0F164004843E1
:102C3000642190FBF1F0A083284617F0F3FD0746CE
:102C4000284617F04DFE0346B4F91C1003203A46FF
:102C50000090284603F06EFF0146A083284600221C
:102C60000CE00020B4F91E100C22009202B228469B
:102C700003F060FF0246E0832846002100231AF09B
:102C80001BF8A08B08B1BDE8FE83E08B0028FAD1C9
:102C9000B9F1000F1AD1A86810B1408A474200E08C
:102CA0000027284617F044FD3AB2002A01DC01282B
:102CB0000CDBB2F1FF3F04DDB0F1FF3F06DC404228
:102CC00002B228460021012319F0F6FFB8F1000FE7
:102CD0001AD1284617F0A6FD0746284617F000FE31
:102CE000002F01DC01280FDBB7F1FF3F06DDB0F15B
:102CF000FF3F09DC404201B2284601E02846394640
:102D00000022012319F0D8FF28460A21324612F08A
:102D10006FF960788007B6D40020E062B4F8400014
:102D200020F00F00A4F84000BDE8FE83280000203A
:102D300001E0FFFF70B5044608B165680CE00025AE
:102D40000AE02068294628444668204600F03BF8FF
:102D5000284615F04DFB3546002DF2D170BD08B167
:102D6000406870470020704708B1426800E00022C8
:102D7000002122B1036801311A445268F9E708467C
:102D800070470068084440687047006808587047FA
:102D900008B1806870470020704710B5044600688D
:102DA000083015F0A9FA58B12168002242504218A3
:102DB00063685360626802B15050A168606001B1FD
:102DC00010BDA06010BD10B568B142688A420BD03A
:102DD000026884688B588C4211D0141D085903B1C5
:102DE000185100B1835010BD026811444968416018
:102DF000002907BF002181600020885010BD83603A
:102E000003B1D0180021416010BD70B5044652EAEC
:102E100001001BD0204615460E4616F053FBA06855
:102E20002A460123018A31440182418A2944418290
:102E30002046314619F0DEF820460B21002212F020
:102E4000D7F8012803D1204618F0FEFF012070BDFD
:102E50002DE9F04106464FF6FF70144622EA0008BD
:102E6000AEB1304662220D4618F021FB78B107461C
:102E7000006860B130462946632218F018FB01064D
:102E800005D03B68C2B2A1B2384698470446A0B20A
:102E900040EA0800BDE8F08170B5A8B10D460446CF
:102EA000FDF78EF90646204629461EF0A6FA05468D
:102EB000204401211EF0A1FA2118301A854203D8BE
:102EC0004A5D62550135F9E770BDF8B50F46194600
:102ED0001D46144606461EF0C4FA386028B128681C
:102EE000002130441EF0BDFA00E000202060F8BD53
:102EF0002DE9F04F8FB000270028079200F0D68010
:102F0000002900F0D3800578002D00F0CF80189ABA
:102F100012F0060F11D001300027012242F20143C6
:102F20000D2D03D802FA05F41C4202D1C55D01370C
:102F3000F6E7002D18BF0137B8E0009100211C46CC
:102F4000002701908DF833100B9102F001010A91D6
:102F500022B2012AC0F2A580002D00F0A28000EB71
:102F6000070A0021002008900E9150460EA91EF07D
:102F700078FA80460E98069400264FF00009002546
:102F80000D90A0B2002405904FF0FF30099002A8E8
:102F900080E860011AF80600002857D050460DA9B5
:102FA0001EF05FFA81460A9805F1010B58B10DF148
:102FB0003300414600F0A9F848B1DDE90D06C846E6
:102FC0005D460E90E6E70DF1080898E8600100986C
:102FD00041464A4612F02CF9044400B200280798F2
:102FE000C8BF044423B2191A059881423146D8BF9C
:102FF0004FF0FF310998421C08BF08460990B8F10C
:103000000A0F18BFB8F10D0F1AD0A8F59C4145F270
:10301000A610814227A013D30021072904D0425CC7
:1030200001319045F9D10BE0DDE90D160998C8464C
:103030005D460E91411C089808BF18460890A6E707
:1030400026B9099A511C02D100260CE0099A501C9D
:1030500008D0002F4FF0000018BF0246089B18BF91
:1030600003460AE0089B3DB1B8F10D0F08BFB9F166
:103070000A0F01D0324600E00E9A0198069C0B9F81
:103080007AB1017817440B970A2918BF0D2908D087
:10309000C55D0D2D03D0E41A0A2D7FF459AF013719
:1030A0000B971FB90BA91EF0DCF90B9F38460FB028
:1030B000BDE8F08F202C2E3B3A2D5F002DE9F0412A
:1030C00008B31446FAB1064620468846FDF778F85C
:1030D000C8B105463046FDF773F80746304641460D
:1030E0001EF08BF971194219EB19934203D3F35D6A
:1030F000CB55013FF8E730442DB114F8011B013DD9
:1031000000F8011BF8E7BDE8F081037802462329A7
:1031100007D10020022B0BD0012B0CD053B901207A
:103120000AE0012B1CBF00207047202901D102209A
:103130001070012070470020107070472DE9F84F83
:10314000DDF82890984615460E4683464FF0010A52
:103150008DB16F08584607FB08642146C84701280F
:1031600003DA00283D46F3D406E02AEA050004EB22
:1031700008063D1AECE700242046BDE8F88F2DE94B
:10318000FE4FDDF848E09A460292DDE91039DDF89D
:1031900038C0DDE90CB20D4606461EF0020429D106
:1031A000B9F1000F0BD05FEACE710AD01EF00C010E
:1031B00018BF012141EA0C01A9EB010901E04FF020
:1031C000000930219A4238BF202A03D20BF802109E
:1031D0000132F7E720460EF001073021144647B1CF
:1031E0004C4505D21F2C03D80BF804100134F6E728
:1031F000224604465FEACE6134D50F9F5FEA4E5106
:103200000DD462B19A4218BF4A4508D1511E884672
:1032100018BFA2F10208102F18BF884600E09046A0
:10322000102F07D11EF020010BD1B8F11F0F08D8C5
:1032300078210BE0022F0DD1B8F11F0F0AD86221BF
:1032400004E039B1B8F11F0F04D858210BF8081069
:1032500008F10108B8F11F0F1AD8302108F1010256
:103260000BF808101F2A0AD8BCF1000F01D02D213D
:103270000AE05FEA4E7104D45FEA0E7103D490460F
:1032800006E02B2100E0202102F101080BF80210DA
:103290000EF00100029F019420430BD1029F44468F
:1032A0004C4507D2202029463A465346B0470134C0
:1032B0000137F5E7ABF10104B8F1000F09D014F8BC
:1032C000080029463A465346B0470137A8F101089D
:1032D000F2E7019858B102984442E019484506D2F5
:1032E000202029463A465346B0470137F5E738468D
:1032F000BDE8FE8F2DE9F04F93B0DDF870C00F46AA
:103300001D461646DDF88490DDE91F23DDE91D1B0F
:10331000BCF1000F08BF29F010090A95CDE9087625
:10332000BCF1000F04D119F4806401D000271DE026
:1033300009F020040DF12C0A84F0610404F1F60870
:103340000024BCFBFBF6454606FB1BC707F0FE0E40
:10335000BEF10A0F38BF30253D44671CDC450AF832
:10336000045003D31F2C3C46B446EAD30BACCDE942
:103370000047CDE9021B04A981E80C0208AB0ECB83
:10338000FFF7FDFE13B0BDE8F08F2DE9F04F93B0CD
:10339000DDE91C65DDF89080209C56EA050708BF32
:1033A00028F01008002F07AF0FC704D118F480676A
:1033B00001D0002227E008F02000219F4FF0000AF2
:1033C0000DF12C0B80F0610000F1F6093046294622
:1033D00022463B46FCF728FF00FB146202F0FE0386
:1033E0000A2B4B4638BF30231A44331B0BF80A20F4
:1033F0000AF1010275EB070305D3BAF11F0F9246DC
:1034000006460D46E2D30BA807ABCDE900021E9895
:10341000CDE90204229804902398CDE905080FCB4A
:10342000FFF7ADFE13B0BDE8F08F9A4238BF885465
:10343000704770472DE9F04F91B0DDF868909246E3
:103440008B46DFF860640DF14008002710930029D7
:1034500018BF06461878002800F01782252840F08B
:103460009780591C00251091087820280CD023281B
:103470000FD02B2812D02D2815D0302818D101318B
:1034800045F001051091EFE7013145F00805109175
:10349000EAE7013145F010051091E5E7013145F00B
:1034A00004051091E0E7013145F002051091DBE7DA
:1034B000A0F13002092A05D84046FEF7BAFD10995E
:1034C00004460CE02A2809D159F8044B0131109127
:1034D000002C44BF45F00205644200E00024087857
:1034E0002E280DD1481C45F4806510904A78A2F131
:1034F0003003092B06D84046FEF79BFD10990AE0E1
:10350000002008E02A2A40F0678059F8040B0231B5
:10351000109120EAE0700C9008780E9468384FEA19
:103520007000092820D8DFE800F00912161F1F1FBD
:10353000051F1F05013145F4807514E04A1C1092E7
:10354000487868284CD1023145F0C0050BE00131C4
:1035500045F4007507E04A1C109248786C2842D167
:10356000023145F4407510910878A0F16204132CE3
:103570001CD84FF0080C6F23DFE804F0393D130A24
:103580000A0A0A130A0A0A0A0A74230A0A440A13CC
:1035900059463A465346B04710980137431C10939A
:1035A00058E725F010054FF00A0C50E0252800F0F0
:1035B000D5804FF0100C782849D0582847D0502893
:1035C000E6D111F8012F45F48875562A3DD11091A6
:1035D0004FF0100C0B783BE000210C9101469BE76B
:1035E00045F0800501E045F480751146BDE74FF0D8
:1035F000020C622336E0444615F0020800F0CE804B
:103600000125EBE00C9C00202146002C08BF4FF068
:10361000FF31D9F80080814204D018F800200AB1A7
:103620000130F8E7A042214609F1040938BF0146FC
:1036300015F480620A9208BF014615F002000D9150
:103640000B9000F0B8803D46E2E04FF0100C0346CE
:1036500043F00800582808BF45F02005642B03D02C
:10366000692B01D025F00C05680548BF25F0010540
:10367000562B11D0692B01D0642B38D1A8051BD44F
:103680000E9A0C9BE80541D4680669D42806D9F83F
:10369000000048BF00B265E059F8040BAAEB07022E
:1036A000416809680F91036800910BEB07013046F0
:1036B000FFF7C0FE0744E4E009F10700002220F014
:1036C00007008146406859F8081B05920C9ACDF80E
:1036D00010C011EBE07106920E9A40EBE07381EAA4
:1036E000E071CDE90725C20F83EAE0702CE0A80560
:1036F00019D40E990C9AE8053FD4680600F1AF8002
:103700002806D9F8000048BF80B2AAE059F8040B97
:10371000C10F0028CDE9011CCDE90332059500D584
:103720004042009032E009F107000C9B002220F09B
:1037300007008146406859F8081B06930E9BCDF898
:1037400010C00592CDE90735CDE900100292304650
:1037500059463A465346FFF718FE1DE0252017E765
:1037600099F80000C10F0028CDE9011CCDE9033212
:10377000059500D5404200907AE059F8040B00907E
:103780000020CDE9010CCDE90321059530465946CD
:103790003A465346FFF7AEFD074672E0012039185E
:1037A000451C4A1E0E99884217D22020594653467E
:1037B000B0472846F3E74C464FF000090D980E99A4
:1037C00007EB0905484488421ED2202059462A4664
:1037D0005346B04709F10109F0E7174619F8040B01
:1037E00059463A465346B0470137B8F1000F30D03A
:1037F000A0460E9CA54244D2202059463A46534644
:10380000B04701370135F5E7A1460C9C01300D901A
:103810000A9F98F8000050B10FB144B1013C5946DD
:103820002A465346B047013508F10108F1E70B98E5
:1038300088B100240DF140080D980E992F192044ED
:1038400088421ED2202059463A465346B04701349A
:10385000F2E7A04615E02F460DF1400811E099F877
:10386000000000900020CDE9010CCDE90321059571
:10387000304659463A465346FFF73CFD074609F1A4
:1038800004091098431C1093E4E53A460020594679
:103890005346574528BFAAF10102B047384611B038
:1038A000BDE8F08F333400080146002051B10331E8
:1038B00021F003010C290A4698BF0C22B1F5803F84
:1038C00038BF1046704700005F48012181755D498F
:1038D0005E488968806A0A7D002802F0FE0308BFFE
:1038E00042F001030B7570472DE9F84FDFF8548162
:1038F000D8F80C401DF058FB534EDFF85091A0EB68
:10390000040B4FF0000AF17D09F12805284681F0EB
:103910000101F1750468002C00F08D8094F84200DC
:10392000F17D86F816A0C0F380028A427AD000F0BA
:10393000FB0242EA8101020784F84210216B1BD48A
:10394000002919DC11EB0B0216D4C00709D16169FB
:1039500039B120468847216AA26A01441044216295
:10396000A062A16809B12046884794F84200216B03
:1039700040F0080084F8420011EB0B00206351D4A2
:10398000E16A8842C8BF21632046E1698847014651
:10399000606A814204D0626861620AB1206890471F
:1039A000D4E90B0181423DDB94F84210B4F8407039
:1039B00011F0020207D137B14FF6FF739F421CBFCF
:1039C000013FA4F84070A36B3F0405D0E76BC7F13B
:1039D000000727632BB925E093B18AB9E76B7F42D3
:1039E000276312B9626B52422263A06381F0020026
:1039F000A16AE36284F84200206A2162A06211E0B9
:103A000009F124002146FFF7DEF9FFF75DFFE168C9
:103A100009B120468847216909B1204688472046D8
:103A200014F0E6FCD9F824000119B07D00282846DE
:103A300008BF081D6EE71DF0B7FAC8F80C00BDE816
:103A4000F88F00BF48C0012028000020A4000020FB
:103A5000F0B5102917D830FA01F414D10724002941
:103A600012DD01391D6820FA01F724EA050607F086
:103A70000107ED1007FA06F6575D3E4356551D68DF
:103A800001351D60EBE7FEE7F0BD00002DE9F04FCA
:103A900089B00446D0B2082880F08A8008460F46D4
:103AA00002921FF031FD002182460025019406910B
:103AB0000121059100210491554580F27B8001216F
:103AC0004FF0000B4FF00009A8460026A9430391D0
:103AD000690800910021089100210791B2455CD04E
:103AE000204631462A4603F075FE002846D13A4664
:103AF000029F072F5DD80320039C4FF0030EBBFBF2
:103B0000F0F1B6FBF0F001EB410CDFE807F004291F
:103B1000060A11141D21A8191FE000EB4000801BAC
:103B20000EE0B8FBFEF0A919A0EB8000084407E006
:103B30000099084411E009EB0C000BF00101401A58
:103B4000B0FA80F044090BE00798A0EB0C0004E009
:103B5000A1EB8100089929440844012121EA0004CD
:103B60001746104631462A4603F034FE84EA000325
:103B7000384631462A4620F02FFD019C05980899C9
:103B8000AB4408F10108013601440891DDE9060162
:103B90000144049807918144A0E70599013501315A
:103BA000059106990231069104990139049183E740
:103BB000FEE7FEE709B0BDE8F08FB0B50546406806
:103BC0000C4610B12146FFF7F8FF2A6822B12846BB
:103BD0002146BDE8B0401047B0BD89B206F018BF1D
:103BE00089B206F04BBF0000F0B5F1B1002300BF71
:103BF00002EB430C32F813E0BCF802C02EF0030EC7
:103C00002CF0030C50F80E5050F80C6000EB0E0432
:103C100000EB0C0740F80E6040F80C507E686568B9
:103C200002338B4266607D60E2D3F0BD2DE9F04146
:103C30000488984616460746012A0D460CD1E4B37F
:103C4000281D214690ED000A0139B1EE400A80EDB1
:103C5000000A00F10800F5D1FF2C0CDDB4F5806FEF
:103C600010DBB4F5805F22D0B4F5006F11D0B4F54D
:103C7000806F17D021E03F2C10DC102C12D0202CAC
:103C800007D01AE0B4F5807F03D0B4F5007F0ED0E2
:103C900013E03846294600F005F90EE0402C06D026
:103CA000802C0AD13846294600F030F805E07A68C1
:103CB00028462146012300F0FBFBB8F1000F04D099
:103CC000B989BA682846FFF78FFF012E1CD100EE94
:103CD000104A002CB8EE400A08BFBDE8F081B7EEEC
:103CE000001A81EE000A00BF95ED001A95ED012A39
:103CF00020EE011A22EE402A85ED001A85ED012AF8
:103D0000013C05F10805EFD1BDE8F0812DE9F04750
:103D10002DED028B03888046084601EB830AD8F814
:103D200004200021B1EBD30F4FEA530900F0AB8020
:103D3000D9080AEB890C00EB890E0027C4190AEB9D
:103D4000070594ED000A95ED003A94ED011A95ED02
:103D5000014A0EEB07030CEB070694ED022A95EDE2
:103D6000025A70EE035A93ED006AD6ED001AD6EDB2
:103D7000012AD6ED023AD6ED034AC4ED005A71EE9F
:103D8000045A93ED017AC4ED015A72EE055AD3ED4F
:103D9000020AC4ED025AD4ED035AD5ED036A31EE9E
:103DA000441A35EEA68A36EE214AD3ED037A84ED25
:103DB000038A83ED004A37EE224A83ED014A30EE52
:103DC000A34A83ED024A37EEA44A83ED034AD3198E
:103DD00031EEC64A33EEE06AD3ED000AD3ED011AA4
:103DE00030EE430A32EE452A32EEC75A60EE202A00
:103DF00061EE213A21EE201A20EE210A31EE400A2E
:103E000085ED010A24EE210A25EE211A25EE205A1D
:103E100072EEA32A24EE204A30EE450AC5ED002AB0
:103E200086ED000A34EE010A86ED010A93ED020ADE
:103E300093ED031A35EEE63A22EE004A23EE015ADC
:103E400023EE003A22EE012A34EEE77A33EE422ADC
:103E500085ED032A26EE012A27EE011A27EE003A05
:103E600026EE000A34EE054A32EE432A30EE010A0D
:103E7000013907F1100785ED024A86ED022A86ED29
:103E8000030A7FF45BAF4946022300F011FBD8F828
:103E90000420504649460223BDEC028BBDE8F047A2
:103EA00000F006BB2DE9F04F81B02DED088B8EB0F0
:103EB00002880346500801EB800505EB800691ED72
:103EC000000A91ED011A96ED002A96ED013A04934D
:103ED0005B6806EB800730EE024A30EE420A31EEB4
:103EE000032A31EE431A95ED013A95ED005A0593F8
:103EF000930897ED017AD7ED000A029374EE452AF4
:103F000072EE433A34EE054A32EE032A6FF00103B3
:103F100034EE204A32EE072A03EB920230EE036AB7
:103F200071EE451A30EE430A31EE051A81ED004A72
:103F30000A9181ED012A510836EE476A71EEA01A06
:103F400072EEE02A73EEC73A30EE070A31EE601ADD
:103F50000095019603970D91C10085ED006AC5EDAE
:103F6000011AC6ED002AC6ED013A87ED000A87ED79
:103F7000011A0C9100EB40016FF007036FF003078B
:103F80004FEA800E07EBC00B07EB800A03EB00192A
:103F900003EB81028C000020002500210B9100BF63
:103FA0000A9E059B07900695089406EB04080C9C56
:103FB000311806EB040C06EB0E0491ED020A9CEDA1
:103FC000022AD4ED020A30EE026AD8ED022A36EE59
:103FD000204A34EE224A91ED031A9CED033AD4EDC7
:103FE000031AD8ED033A81ED024A94ED034A31EE0B
:103FF000037A98ED035A37EE044ACDF824E034EE04
:10400000054A81ED034A0B9930EE420A31EE431A1C
:1040100030EE212A03EB010E32EE634A31EE602AC4
:104020000D9932EE225A36EE602A37EE613A30EEC2
:10403000610A31EE201A1F18581932EE622A33EE47
:10404000633A30EE230A002931EE621A00F0CC8088
:104050000A998E1801EB0A0301EB0905594493ED07
:10406000007AD6ED010AD1ED003A77EE202AD5ED9F
:10407000014A72EEA35A75EEA45A13ED016AD6ED09
:10408000001A51ED016AD5ED007AC3ED005A11ED29
:10409000018A76EE215A95ED009A35EE888A38EE3F
:1040A000098A03ED018A97ED028A97ED039A24EEBF
:1040B00008AA25EE09BA25EE085A24EE094A35EE7B
:1040C000444A37EE605A84ED034A36EE614A35EED3
:1040D000666A33EEE47A36EE276A74EE070A66EE15
:1040E000091A20EE899A60EE880A26EE086A3AEEEE
:1040F0000BAA71EEE00A36EE096A84ED02AAC1ED60
:10410000000A01ED016A90ED046AD0ED050A62EE45
:10411000061A23EE208A23EE063A22EE202A33EEF8
:10412000422A8CED032A32EEE32A35EEE63A71EEAE
:10413000881A33EE673A32EE642A0D98CCED021AF3
:1041400062EE461A23EE066A23EE203A22EE202A79
:1041500031EEC33A32EE462A013886ED013A86ED59
:10416000002A0D909EED062A9EED073A0C9820EE4F
:10417000026A61EE030A21EE021A20EE030A0830F9
:1041800031EE400A37EEE61ADDF824E00C9088EDB7
:10419000030A37EE440A31EE451A0B9821EE034A22
:1041A00020EE033A20EE020A36EE206A21EE021AD1
:1041B00034EE400A183088ED026A85ED010A31EECE
:1041C000030A089C0B9085ED000A069D07980EF1E6
:1041D000080E083410350830A9F10809083AABF187
:1041E000080BAAF1080ADBE697ED026A97ED037A5D
:1041F00064EE060A65EE071A25EE065A24EE074A13
:1042000030EEA16A35EE444A84ED026A84ED034A39
:1042100090ED044A90ED055A22EE046A23EE057AE9
:1042200023EE043A22EE052A36EE074A33EE422AFE
:104230008CED024A8CED032A9EED062A9EED073A8C
:10424000029D20EE024A21EE035A21EE021A20EED0
:10425000030A0A98059A34EE052A31EE400A2946E7
:10426000042388ED022A88ED030A00F021F9049C5A
:10427000009862682946042300F01AF962680198E0
:104280002946042300F014F96268039829460423A0
:104290000EB0BDEC088B01B0BDE8F04F00F008B9DE
:1042A0002DE9F04381B02DED028B0C4600219046A4
:1042B000B1EB920F054674D04FEA980795ED000ACE
:1042C00095ED011A20EE000A21EE011A30EE018A66
:1042D000B0EE480A25F044FDB4EE400AF1EE10FAC3
:1042E00049D684ED000A95ED020A95ED031A20EEF9
:1042F000000A21EE011A30EE018AB0EE480A25F0DC
:104300002FFDB4EE400AF1EE10FA39D684ED010A21
:1043100095ED040A95ED051A20EE000A21EE011A2A
:1043200030EE018AB0EE480A25F01AFDB4EE400ADC
:10433000F1EE10FA29D684ED020A95ED060A95ED04
:10434000071A20EE000A21EE011A30EE018AB0EEC3
:10435000480A05F1200904F1100625F001FDB4EE2C
:10436000400AF1EE10FA15D684ED030A013F4D46DE
:104370003446A3D113E0B0EE480A25F0F1FCB0E7D3
:10438000B0EE480A25F0ECFCC0E7B0EE480A25F094
:10439000E7FCD0E7B0EE480A25F0E2FCE4E734465B
:1043A0004D4618F0030620D095ED000A95ED011A50
:1043B00020EE000A21EE011A30EE018AB0EE480A22
:1043C000271D25F0CDFCB4EE400AF1EE10FA07D619
:1043D00084ED000A013E05F108053C46E4D104E005
:1043E000B0EE480A25F0BCFCF2E7BDEC028B01B050
:1043F000BDE8F083F0B590ED000A4C1E4FF0000CC4
:10440000BCEB940F00F1040E3BD001272646A50813
:1044100067F301064FF0000C042700BF9EED001A61
:104420009EED012A9EED023AB4EE410A9EED034A4A
:10443000F1EE10FABCBFB0EE410AA7F1030CB4EEE6
:10444000420AF1EE10FABCBFB0EE420AA7F1020C2C
:10445000B4EE430AF1EE10FABCBFB0EE430AA7F186
:10446000010CB4EE440AF1EE10FABCBFB0EE440AFF
:10447000BC46013D07F104070EF1100ECED100EB52
:10448000860E14F003000ED0404200BFBEEC011AAD
:10449000B4EE410AF1EE10FABCBFB0EE410A01EBF6
:1044A000000C0130F2D382ED000AC3F800C0F0BD69
:1044B0002DE9F04F81B02DED108BA0B0DFED04CAD7
:1044C00000900430CDE902320190CDE91E1101E0E7
:1044D000F304353F1F9A4FF0000AD308DF00A7EB23
:1044E000D200C0001D904FEAC20C03EB430503EB62
:1044F0008302580106931E01019B2C014FEAC20E54
:10450000ED00CDE90C0ECDE90A5600BF0A9D191841
:1045100003EB05091D9D03EB0E0003EB070810EDEF
:10452000014A86469A19181903EB050B13ED011A77
:1045300011ED012A18ED013A12ED017A50ED010A50
:1045400059ED011A5BED012A31EE025A33EE046A8D
:1045500077EE203A71EEA24A75EE235A76EE246A7F
:1045600075EEA67A43ED017A75EEE65AD8ED007A3B
:104570009EED008A99ED00BA9BED00CAD3ED006A6A
:1045800041ED015AD1ED005A92ED009A90ED00AA4A
:1045900037EE88EA7BEE0C8A36EEA5DA39EE0AFAB7
:1045A00035EE635A36EE646A7EEE684A7DEE0F9A07
:1045B0007DEE4F3A35EE24DA35EE645A7EEE28AAC7
:1045C00002ED01DA33EEC6DA00ED015A36EE235A77
:1045D00031EE421A33EE442A37EE603A31EEE24AC7
:1045E00037EEC86A7BEE4C0A79EEAABA79EEEA9AFF
:1045F00072EE441A32EE042A36EE604A36EE206A33
:10460000C3ED00BAC1ED009A82ED00DA80ED005AE8
:1046100036EEE55A39EE4A7A61EEAC1A22EE2C2AD1
:1046200024EE2C4A26EE2C6A71EE210A73EE022A41
:1046300075EE043A77EE064A31EE611A33EE422AFD
:1046400035EE443A37EE464A2646744670EEA45A92
:1046500070EEE40A31EE045A1F9A1E9948ED015A91
:1046600073EEE25A4BED010A72EEA30A204604ED06
:10467000015A33EE425ADDF834E0C8ED005ACBED72
:10468000000A84ED005A0C9831EE441A34460B9E11
:10469000924409ED011A32EE031A8A45634489ED0A
:1046A000001AFFF433AF1F984028C0F0D48102985D
:1046B000009E80B205900698CDE90E4CC0EBC0007C
:1046C000C000002401251097049000BF0598039BAB
:1046D000044403EBC40191ED000A03EB04128DEDD9
:1046E0001D0A92ED000A04EB440203EBC2008DEDBB
:1046F0001C0A90ED000A03EB44118DED1B0A91EDAD
:10470000000A04EB8401C80003EBC1018DED1A0A15
:1047100091ED000A4FEAC20A4FEA021B03EB0212B4
:104720008DED190A92ED000AC4EBC4024FEAC40CE5
:10473000D10003EBC2028DED180A92ED000A0CF1D4
:1047400004024FEA041E1A448DED170A92ED000A86
:104750000EF104021A448DED160A92ED000A0AF1D8
:1047600004024FEA44191A448DED150A92ED000A2D
:1047700009F104021A448DED140A92ED000A043086
:1047800018448DED130A90ED000A0BF10400184453
:104790008DED120A90ED000A081D18440994D0ED21
:1047A000006A0796B44608952B46DDE90C54DDE90E
:1047B0000A76DDF810808DED110A00BF10980E9971
:1047C0000CEB05090CEB000E0CEB04000CEB060BDC
:1047D0000CEB010A0CEB07020CEB0801DCED027A92
:1047E00099ED028A9EED029A90ED02AA9BED02DA03
:1047F0009AED02EA92ED02FAD1ED028A37EE88BA1A
:1048000039EE0ACA7DEE0E9A7FEE28AA7BEE29BA0F
:10481000F0EE6C3A7CEE2ACA7BEEACDACCED02DA32
:104820007BEEECBADCED03CAD9ED03DADEED03EA88
:10483000D0ED03FA9BED030A9AED031A92ED032AD9
:1048400091ED033A3CEEAD4A3EEEAF5A30EE016ACE
:1048500032EE037A74EE060A75EE071ADDED1A4A97
:10486000DDED135A70EEA12A70EEE10ACCED032AB9
:1048700064EEAB1A65EEA02A71EEA21A64EEA00AED
:1048800065EEAB2A70EEE20AC9ED021AC9ED030A21
:104890007BEE690A7CEE6A1A34EE464A35EE475AD8
:1048A0009DED1CCADDED154A30EE856A34EE617A65
:1048B0006CEE062A24EE87BA2CEE077A24EE866A7E
:1048C00030EEC55A31EE844ADDED180ADDED111ADD
:1048D00037EE466A8BED036A20EE856A21EE847A14
:1048E00020EE844A21EE855A37EE066A34EE454AB8
:1048F00039EE4A5A3FEE687A7EEEEF1A30EE410A00
:1049000032EE431A7BEE222A35EE472A35EE073A7D
:1049100031EEC15A31EE811ACBED022A8AED026ADC
:104920008AED034A37EEC84A3DEE4E6A7CEEED0A48
:1049300022EE232A23EE233A25EE235A21EE231AD0
:10494000F0EE63CA34EE027A76EE031A70EE852A30
:1049500070EE017ADDED1D3ADDED164A37EE278A5D
:1049600032EEE19A23EE88AA24EE89BA23EE899AE0
:10497000DDED173A37EE677A71EEA21A63EE872AF9
:1049800066EEA17A63EEA11A26EE877A24EE888A73
:1049900031EEC77A34EE422A36EE433A30EEC54A5B
:1049A00030EE410ADDED190ADDED121A39EE488AC2
:1049B00032EE001A34EE435A8EED038A81ED037A0B
:1049C00020EE816A21EE857A20EE855A21EE811A49
:1049D0003AEE0BAA72EEA72A36EE076A35EE411AB6
:1049E0008EED02AAC1ED022A80ED026A80ED031A63
:1049F0001F9833EE041A03441E989DED1B4A9DED4B
:104A0000145A32EE400A83420F9824EE002A25EE13
:104A1000013A24EE011A25EE000A32EE032A31EEA5
:104A2000400A844482ED022A82ED030AFFF4C6AEF6
:104A3000089D0698079E0135099C854206F10806E7
:104A4000FFF444AE0298C00002901F983F280698D9
:104A50001F903FF63FAD20B0BDEC108B01B0BDE81C
:104A6000F08F0000B0B52DED028B15460022B2EBA1
:104A7000910F24D09FED290A8A0821F003030446F0
:104A800094ED001A94ED012A94ED023A21EE011AF8
:104A900094ED034A30EE010A22EE021A30EE010ACA
:104AA00023EE031A30EE010A24EE041A30EE010A56
:104AB000013A04F11004E3D100EB830001E09FED23
:104AC000170A11F0030207D0B0EC011A013A21EEE7
:104AD000011A30EE010AF7D101EE101AB8EE411AB0
:104AE00080EE018AB5EE408AF1EE10FA02DA9FED0F
:104AF0000B0A08E0B0EE480A25F032F9B4EE400A9D
:104B0000F1EE10FA04D685ED000ABDEC028BB0BDC3
:104B1000B0EE480A25F024F9F5E700BF00000000D8
:104B2000B0B592B00446808FB0B101AD284605F013
:104B30003DFB0C48029001200B900020CDE90900BC
:104B400009480194089009480490A08F0C902846C9
:104B500005F090FB12B0B0BD204612B0BDE8B040E9
:104B60001EF08ABC0135020863A200080335020862
:104B700010B50446406803280AD94968043121F079
:104B8000030108446060204600F038F8204610BD5C
:104B9000FEE7F0B54B6823F003027F2A02D89A089B
:104BA000002308E0B2FA82F3C3F11A04C3F1190337
:104BB000E24082F0200200EBC31404EB820454F8BC
:104BC0003C5F5DB10E46C860E96046F8085F01F1E0
:104BD0000B0525F00305AE4201D0FEE7FEE70125F7
:104BE0000769216005FA03F605FA02F13E43066102
:104BF00000EB8300426911434161F0BD10B50446EA
:104C000000F036F8046010BD10B50446FFF7F6FF5B
:104C1000416841F002014160606840F0010060605D
:104C200010BD10B5044600F023F8416821F00201E0
:104C30004160606820F00100606010BD70B50646FC
:104C400008460C4600F014F880B105460079C0070C
:104C50000AD0606803280AD93046294600F012F8C5
:104C600020462946FFF784FF204670BDFEE7FEE799
:104C70004168032905D9043921F0030108440830AB
:104C80007047FEE710B54B6823F003027F2A02D875
:104C90009B08002208E0B2FA82F4C4F11A03DA4059
:104CA00082F02003C4F11902BDE810401FF0D1BA10
:104CB00010B5421802F10F0402F10C0324F00304B2
:104CC000A34200D0FEE7141D4268636822F003028D
:104CD000521A03F00303043A13430B2A636009D901
:104CE000426802F00302114341602046FFF78CFF47
:104CF000204610BDFEE70000BCB504461B48C56D4C
:104D0000284611F0EFFB30B1208FE0862046BDE849
:104D1000BC4017F099B8606A007FC0071BD12046DD
:104D20000FF0A1FAE08E218F81420BD020870190F5
:104D300001AA20461C2110F05BF9012814D120465D
:104D400017F082F885B12868007804280CD1A06893
:104D500030B1806805E02046BDE8BC400FF0C0BD22
:104D60000020002110F0E9FBBCBD00BF280000209E
:104D7000016809B1486800E00020898E00221BF01C
:104D80006DBBBCB50B88048945892344ADF8003060
:104D90004B882B44ADF802308B88C98823442944C2
:104DA000ADF804304369ADF8061069469847BCBDBC
:104DB0002DE9F04F8FB0CDE9091004920E920793C0
:104DC000DDF870B0C878DD4910F001000A46DA4815
:104DD00008BF0246069218BF01460891D949D84833
:104DE00018BF0146DBF810E00591BBF80400BBF8E2
:104DF0000210002375460022091A65B1DBF80C0089
:104E0000013D18441433047CE40719BF0089091AD2
:104E100080890244F1E700234FF0000C002676451C
:104E20002DD2DBF80C50EF1897F810805FEAC870AD
:104E300022D1100452D010B20CB2B7F904A094FBE6
:104E4000F0F4F86844430FFA84F9B7F90640A14535
:104E5000B8BF4C465445B8BF54464C4508D048F0FE
:104E600001004FF0010C3874DBE9035EE818C068FC
:104E70001D44091B121A2C8114330136CFE75FEA57
:104E8000CC70B2D10A9816F0A9F8DDF824A08046BB
:104E900000200DA90DF13604BBF90220BBF9083042
:104EA000ADF83600ADF834009AF80000CDE90041C5
:104EB0001A991EF02DFAB8F1010F10D19AF80300DB
:104EC00010F001000BD00A9C204615F0ACFBBDF899
:104ED000361001EB0009ADF8369003E0FEE7BDF8AF
:104EE00036900A9C0499A06815F03CFB0746BDF873
:104EF00034000499944D079C0EAECDF808800390C1
:104F0000002F00F01581A14200F01281F8692946B6
:104F1000284240F00281384616F0C2F858B1DBF85A
:104F20001010002061B1DBF80C201358BB4209D0EF
:104F300001391430F6E7788C20F44060788430E052
:104F4000002501E010440589099807F11404C07890
:104F5000C0074FF4006008BF4FF48060798C21F4E3
:104F600040610844089978842046884780B2854289
:104F700017D0384616F068FF7869B969059ACDE907
:104F80000B0129B220469047384629210BAA10F080
:104F90002FF8786822213A4610F02AF8384616F0A1
:104FA00053FF099D687801280FD0022816D1069971
:104FB000BBF9004007F114008847611C21F0010192
:104FC000081A022190FBF1FA0AE00699BBF80040AA
:104FD00007F114008847A4EB000A01E04FF0000A33
:104FE000B8F1010F09D1E87810F0010005D0089957
:104FF00007F114008847A9EB0009384600216B220D
:1050000016F055FA0446384600216C2216F04FFA85
:1050100004F4C045B7F816E07B8BB7F814C0B5F5BB
:10502000005F13D125B225F4C045B5F5FA6F0DDC4C
:105030003C8BB5F57A7FC8BFC5F57A756421A4EBC2
:105040000C04013424B26C4394FBF1F400F4C04529
:10505000B5F5005F12D105B225F4C045B5F5FA6F7C
:105060000CDCA3EB0E00B5F57A7FC8BFC5F57A75E9
:105070006421013000B2684390FBF1F0099E199A57
:105080004D46C846F3781044A0EB0E0013F0010122
:1050900018BF554618BFCA46054418982044A0EBCF
:1050A0000C0000EB0A0444EA050000041AD038465C
:1050B00016F0CAFEB88A2044B882388B2044388360
:1050C000F88A2844F882788B28447883384616F08A
:1050D000BBFE21B22AB23846002316F08BFFF378CC
:1050E00003F00101DDF80880079C174DB2460EAEB3
:1050F000B8F1010F07D131B11B980399A9EB00005A
:10510000A0EB01090BE0089907F1140088471B99EF
:1051100049440844039900EB01099AF803300A98BE
:10512000C3F38001324602F092FE0E990746E7E68D
:105130000FB0BDE8F08F00BF4FAB00081BAB0008FD
:105140008BAB000881AB000801000600022A28D9B9
:1051500070B5C0F3C423C1F3C42400F01F0501F0EF
:105160001F0623441F2435441F2B28BF23461F2D11
:1051700038BF2C4644EAC323C0F34510C1F345149D
:1051800020443F2828BF3F2000F03F00FF2A43EA89
:105190004010BDE8704003D080B289B208F004BD71
:1051A000014608467047022A25D9B0B500F01F0312
:1051B00001F01F04FF2A04FB03F3C0F3C424C1F36E
:1051C000C425C0F3451005FB04F424F01F044FEA86
:1051D000841444EA5313C1F3451404FB00F06FF048
:1051E0001F0404EA50001844BDE8B04002D089B260
:1051F00008F0DABC014608467047022A27D9B0B544
:10520000C0F3C423C1F3C42401F01F05FF2AA4EB9B
:10521000030300F01F04C0F34510A5EB040423EAC8
:10522000E37324EAE47444EAC323C1F34514A4EB12
:10523000000020EAE07000F03F0043EA4010BDE8C3
:10524000B04003D080B289B208F0AEBC0146084637
:10525000704700007CB50568017A0DB16C6800E00C
:10526000002401F07F000A2809D02B2844D1618D49
:105270002046002202B0BDE870401BF0EFB81F4886
:10528000C06D10B10079012836D001A9284615F06B
:10529000A1FA94F82C0010F00C0F11D0284615F04C
:1052A000C2F90546204615F0A7FE01284FF002007E
:1052B000BDF9041095FBF0F008BF4942084409E02D
:1052C000284615F09BF905460220BDF9061095FB0E
:1052D000F0F0084490FBF5F0668D012200B220EA60
:1052E000E075204629461BF0B9F8B54204D02046A7
:1052F0001C2100220FF07CFE7CBD00BF2800002096
:10530000002141F6FF7230F8113001319342FAD199
:10531000481E7047E0B590F8542002F001038B421C
:1053200021D0002918BF012102F0FE021144426A77
:1053300080F85410B0F84810938AD28A1944ADF816
:105340000010B0F84E101144ADF80610B0F84C1033
:105350001944ADF80410B0F84A101144ADF8021029
:10536000694616F08BFD8CBD4FF61F00084001F416
:10537000FC6140EA0140111DC9084143494200EB6C
:1053800051100249084040EA104070471FF8E007FA
:105390002DE9FE4F80462C48007800284DD02A2069
:1053A000B1F80690B1F802A08D880E882749284FE1
:1053B0001446ADF80600BDF806008B46ADF80600B1
:1053C000BDF806000880300AB847F0B2B847280A8E
:1053D000B847E8B2B8472B20ADF80A00BDF80A007C
:1053E000ADF80A00BDF80A00ABF800004FEA1A2039
:1053F000B8475FFA8AF0B8474FEA1920B8475FFA12
:1054000089F0B8472C20A9EB0A01ADF8080001315A
:10541000BDF8080089B2ADF80800BDF80800ABF887
:105420000000A81B013080B201FB00F52DB134F85B
:10543000020BFCF71BFC013DF8E7D8F80C0000213B
:1054400001614161BDE8FE8F04C00120FEFF0760DD
:105450006D1C00082DE9F041C9B2082910D214468C
:105460003CA252F8200040F2375241EAC0000A2123
:10547000064631B173120139534383EA4606F8E711
:10548000FEE746EA8020B0F5004F11D245F2124106
:10549000002580EA0107062D0BD027FA05F0082128
:1054A0002A4600F0010320461FF096F80135F2E786
:1054B000FEE72C4DC6F38013204608210722A8479B
:1054C000F0B208210822C3092046A847C6F30023EA
:1054D000204607210822A84709260525681C0BD06D
:1054E00027FA06F02946082200F0010320461FF0A3
:1054F00073F8013D0136F1E720461EF005F88046BD
:10550000461E0025082D0BD027FA05F0314608224B
:1055100000F0010320461FF05FF8013E0135F1E77E
:105520006FF006056DB105F10F0008EB05020821CB
:1055300027FA00F000F0010320461FF04DF8013576
:10554000F0E7A8F10802204608210123BDE8F04158
:105550001FF042B80100000000000000030000003E
:1055600002000000D94502082DE9F04F9FB0074620
:10557000C8780328C0F0CD820C46108851889388E3
:10558000D288B4F92050ADF87400ADF87610ADF8BB
:105590007830ADF87A20022D1BDB94F82250FD2DD7
:1055A00017D32588ADB194F82350C5F34006921B5C
:1055B000ADF87A20C5F300129A1AADF87820C5F339
:1055C00080021144ADF87610C5F3C0010844ADF86F
:1055D0007400BA681BA81DA9FCF73DFD002800F067
:1055E0009882E07B09970DF1740810F007094FF0DD
:1055F000060008BF0420255A6689404609F0DCFEF3
:10560000074614A81C21FBF7D8F8A078AA1BADF810
:10561000585039468DF8690018BF4A4620880597CA
:1056200027B9110608BF002800F0AF810FFA80FBF0
:10563000BDF87400BDF878100692081ABDF87A100B
:10564000013007B2BDF87600081A01300FFA80FA6F
:1056500050465745B8BF3846BBEB600FA8BF4FEA6E
:10566000600B0020BBF1010FB8BF0120BDF96C2019
:10567000BDF87060B11A049292B201310FFA81F84C
:10568000E178FC2988BF4FF0FF310291CDF80CB0D2
:105690000599C943014217D14046914612F044FE94
:1056A0000FFA8BF20DF1380B05461DA90023584661
:1056B0000AF0C6FA5846002109F0ECFC0190E07BA4
:1056C0004A4600F0070903E04FF6FF7000250190FD
:1056D000FF20B9F1000FADF83460ADF83020089527
:1056E0001795CDF81C808DF868000CA819901490BF
:1056F00030D0DFF82454E87980B9DFF82064706A8C
:1057000012F076FEDFF8180400212867706212F0AC
:10571000C8FF0120E871E07B00F00709B9F1020F32
:1057200056464FF0130008BF3E465745C8BFBA461D
:1057300000EB4A0020F0030BBBF1000F4CD05846A1
:1057400012F0DAFD28B180464068394640F000404A
:105750004DE0FEE7069A00214FF00008039E0598F1
:105760000091CDF8188000285ED0BDF86C00029939
:10577000BDF96E70BDF972B0DDE907A8D5B20DF1C3
:105780005009CCB206B25F4500F3A98140462146DC
:105790005246ADF83670ADF8327012F05BFF3AB297
:1057A00040463146534609F0C3FD012808BF022098
:1057B0008DF86000012D09D10698BDF9761080683A
:1057C000A0EB410030F81700ADF8580009984946A1
:1057D0000BF0D3F90137D6E7D048D5F870803946B9
:1057E000406A4045FDD1D8F8040020F00040A71DD4
:1057F0000122C8F80400B0F1FF3FA8F80E60A8F835
:105800000CA062F31E0087EA610132B281EA020154
:10581000C8E9001040F3C380286F00F1100158441C
:10582000C8F808102867BEE00298BDF96EB0BDF94F
:105830007290079F00249246C0B20490D0B20590A7
:10584000B4424FDABDF87600204405B2BDF87A00C4
:105850005D45A0EB04000FFA80F801DAC8453FDC93
:10586000089E04993A46304612F0F4FEBDF9301015
:1058700030462A463B4609F05BFD012808BF02205E
:105880008DF860005D4513DB0598ADF83650ADF836
:105890003250012808D10699BDF976008968281A86
:1058A00031F81000ADF85800099814A90BF065F90B
:1058B000039EC84514DC0598ADF83680ADF83280FB
:1058C000012809D10699BDF976008968A8EB000086
:1058D00031F81000ADF85800099814A90BF04DF9F3
:1058E0000134ADE7BDF87400BDF97A10ADF82800B9
:1058F000BDF87800A1EB0608ADF82E80ADF82C00BD
:10590000BDF9760085190AA8ADF82A5009F054FDB2
:1059100004465FEA0A6008BF002C00F0D380012033
:10592000DDE907760DF1500A8DF8600002988DF8D8
:105930006800BDF86C000FFA80F9454500F3CF8090
:1059400064B1049930463A4612F084FE2AB23046D9
:1059500049463B4609F0ECFC8DF860000599099832
:10596000ADF83650ADF83250012909D106998A6850
:10597000BDF97610A2EB410131F81510ADF85810C1
:1059800051460BF0FAF80135D7E7E07814A9CDF8C5
:1059900050808DF8680009980BF0EFF8B9E008F135
:1059A0001000C8F80800002536B2B5426FDA207A38
:1059B000D8F808B000FB06F128B2B0EB212F5CDD6F
:1059C000A17B4A1E04EB8202137A7343B0EB232FB0
:1059D00055DABA4600235A1C8A4257D204EB830395
:1059E0001B7B03FB06F71346B0EB272FF3DC3812C3
:1059F00004EB82070090788808F01CF98146F8884B
:105A000008F018F939794FF4FC3E48F2810C01FB9B
:105A100006F20099A1EB2221C1B31212C9F3074388
:105A2000C0F30746AA1A12B2C2EB022292FBF1F1AE
:105A3000C9B281F0FF02534311FB0633C9F30726B5
:105A4000C0F30727C0B2564303FB0CF311FB0766F4
:105A50004FF4FC670EEAD33306FB0CF607EA165642
:105A6000574633445FFA89F6724311FB002000FB6E
:105A70000CF0C0F38460184402E0388800E0D0885D
:105A80002BF815000135B8F80E608DE7FEE74146AA
:105A9000B8F1000F18BF0121069AD0B202287FF496
:105AA0005DAE039EB8F1000F3FF459AED8F8080080
:105AB000049900EB4100BDF97410A0EB41000121F5
:105AC00015904CE6029814A9ADF83680ADF8325026
:105AD0008DF868000020179009980BF04EF8089890
